{
  "_format": "hh3-artifact-1",
  "contractName": "Chai",
  "sourceName": "contracts/chai.sol",
  "abi": [
    {
      "inputs": [],
      "stateMutability": "nonpayable",
      "type": "constructor"
    },
    {
      "inputs": [
        {
          "internalType": "string",
          "name": "name",
          "type": "string"
        },
        {
          "internalType": "string",
          "name": "message",
          "type": "string"
        }
      ],
      "name": "buyChai",
      "outputs": [],
      "stateMutability": "payable",
      "type": "function"
    },
    {
      "inputs": [],
      "name": "getMemos",
      "outputs": [
        {
          "components": [
            {
              "internalType": "string",
              "name": "name",
              "type": "string"
            },
            {
              "internalType": "string",
              "name": "message",
              "type": "string"
            },
            {
              "internalType": "uint256",
              "name": "timestamp",
              "type": "uint256"
            },
            {
              "internalType": "address",
              "name": "from",
              "type": "address"
            }
          ],
          "internalType": "struct Chai.Memo[]",
          "name": "",
          "type": "tuple[]"
        }
      ],
      "stateMutability": "view",
      "type": "function"
    }
  ],
  "bytecode": "0x6080604052348015600e575f5ffd5b50600180546001600160a01b031916331790556106f08061002e5f395ff3fe608060405260043610610028575f3560e01c80636a13d8591461002c578063865c517214610041575b5f5ffd5b61003f61003a366004610426565b61006b565b005b34801561004c575f5ffd5b50610055610244565b60405161006291906104c0565b60405180910390f35b5f34116100bf5760405162461bcd60e51b815260206004820152601d60248201527f506c6561736520706179206d6f7265207468616e20302065746865722e00000060448201526064015b60405180910390fd5b6001546040515f916001600160a01b03169034908381818185875af1925050503d805f8114610109576040519150601f19603f3d011682016040523d82523d5f602084013e61010e565b606091505b50509050806101485760405162461bcd60e51b815260206004820152600660248201526519985b1a595960d21b60448201526064016100b6565b6040805160a06020601f88018190040282018101909252608081018681525f9282919089908990819085018382808284375f92019190915250505090825250604080516020601f8801819004810282018101909252868152918101919087908790819084018382808284375f920182905250938552505042602080850191909152336040909401939093525083546001810185559381522081519192600402019081906101f590826105ff565b506020820151600182019061020a90826105ff565b5060408201516002820155606090910151600390910180546001600160a01b0319166001600160a01b039092169190911790555050505050565b60605f805480602002602001604051908101604052809291908181526020015f905b828210156103d8578382905f5260205f2090600402016040518060800160405290815f820180546102969061057b565b80601f01602080910402602001604051908101604052809291908181526020018280546102c29061057b565b801561030d5780601f106102e45761010080835404028352916020019161030d565b820191905f5260205f20905b8154815290600101906020018083116102f057829003601f168201915b505050505081526020016001820180546103269061057b565b80601f01602080910402602001604051908101604052809291908181526020018280546103529061057b565b801561039d5780601f106103745761010080835404028352916020019161039d565b820191905f5260205f20905b81548152906001019060200180831161038057829003601f168201915b505050918352505060028201546020808301919091526003909201546001600160a01b03166040909101529082526001929092019101610266565b50505050905090565b5f5f83601f8401126103f1575f5ffd5b50813567ffffffffffffffff811115610408575f5ffd5b60208301915083602082850101111561041f575f5ffd5b9250929050565b5f5f5f5f60408587031215610439575f5ffd5b843567ffffffffffffffff81111561044f575f5ffd5b61045b878288016103e1565b909550935050602085013567ffffffffffffffff81111561047a575f5ffd5b610486878288016103e1565b95989497509550505050565b5f81518084528060208401602086015e5f602082860101526020601f19601f83011685010191505092915050565b5f602082016020835280845180835260408501915060408160051b8601019250602086015f5b8281101561055b57603f19878603018452815180516080875261050c6080880182610492565b9050602082015187820360208901526105258282610492565b604084810151908a01526060938401516001600160a01b03169390980192909252505060209384019391909101906001016104e6565b50929695505050505050565b634e487b7160e01b5f52604160045260245ffd5b600181811c9082168061058f57607f821691505b6020821081036105ad57634e487b7160e01b5f52602260045260245ffd5b50919050565b601f8211156105fa57805f5260205f20601f840160051c810160208510156105d85750805b601f840160051c820191505b818110156105f7575f81556001016105e4565b50505b505050565b815167ffffffffffffffff81111561061957610619610567565b61062d81610627845461057b565b846105b3565b6020601f82116001811461065f575f83156106485750848201515b5f19600385901b1c1916600184901b1784556105f7565b5f84815260208120601f198516915b8281101561068e578785015182556020948501946001909201910161066e565b50848210156106ab57868401515f19600387901b60f8161c191681555b50505050600190811b0190555056fea26469706673582212203d5d698b2cbc18eddc91cc9ffc37a1450592cc87632fab79df6412bc2c40328864736f6c634300081c0033",
  "linkReferences": {},
  "deployedLinkReferences": {},
  "immutableReferences": {},
  "inputSourceName": "project/contracts/chai.sol",
  "buildInfoId": "solc-0_8_28-cdd3f823af5a6b3213d42ed651a4790254347201"
}